:107C000033C0000041C000003FC000003DC0000084
:107C10003BC0000039C0000037C0000035C0000084
:107C200033C0000031C000002FC000002DC0000094
:107C30002BC0000029C0000027C0000025C00000A4
:107C400023C0000021C000001FC000001DC00000B4
:107C50001BC0000019C0000017C0000015C00000C4
:107C600013C0000011C0000011241FBECFEFD8E0E8
:107C7000DEBFCDBF22E0A0E0B1E001C01D92A63082
:107C8000B207E1F732D04CC1BBCF9091C00095FF55
:107C9000FCCF8093C6000895813410F4805305C052
:107CA000813610F4875301C087558295807F6134F7
:107CB00010F4605305C0613610F4675301C0675576
:107CC000860F089507B600FCFDCFE0910101F09109
:107CD000020183E080935700E89507B600FCFDCFD2
:107CE00085E080935700E8950895DF92EF92FF9228
:107CF0000F931F93CF93DF939FEE89E0E1E0F0E0D5
:107D0000092E80935700E89556985E9A4E99FEC0CA
:107D100088E198E20FB6F894A895809360000FBEB2
:107D20009093600026E831E0309385012093840130
:107D30001092C50093E09093C4008093C10082E448
:107D4000A4DF8FE4A2DF8FE4A0DF84E59EDF8CE474
:107D50009CDF84E49ADF82E598DF86E796DF81E3A3
:107D600094DF8EE292DF80E390DF8AE08EDF81E1B4
:107D70008CDF8091C00087FFFCCF8091C6008A33E2
:107D800039F426E831E0309385012093840104C062
:107D90008D3079F3882369F3E0918401F0918501B6
:107DA00092E0E630F90719F488E56FDFFFCF9F0115
:107DB0002F5F3F4F309385012093840180838A3069
:107DC000C1F686E891E0909385018093840183E178
:107DD0005CDF60918801809187015EDF082F6091F0
:107DE0008A018091890158DFC82F60918C018091B0
:107DF0008B0152DFD82F60918E0180918D014CDF75
:107E0000F82EC00FCD0FC80F10E00C5F1F4F000FF2
:107E1000111FD091030120E099E0E92E8E2D90E012
:107E2000DD24D394DD0EFC01EA57FE4F0817190735
:107E300074F06181808130DFC80FED2FF0E0EC5FDE
:107E4000FE4F8083E394E39421E0DD2DE7CF211101
:107E5000D0930301618180811FDFC1958C1719F0D8
:107E600086E413DFFFCFF11034C08EE20EDFC0E0F6
:107E700080910301C81780F58091000187FF0DC034
:107E800021DF809101019091020180589F4F9093D2
:107E900002018093010110920001AC2FB0E0AC5FB1
:107EA000BE4F07B600FCFDCF80910001E0910101BB
:107EB000F0910201E80FF11D2D913C9191E0090133
:107EC00090935700E89511248E5F80930001CE5F58
:107ED000CFCF81E0F81621F010920301C1E007C076
:107EE0008FE4D3DE809100018111ECDEC2E081E1FC
:107EF000CCDEA895C23009F03CCF8BE4C6DE07B6D5
:107F000000FCFDCF81E180935700E8950C940000C0
:107F1000DF91CF911F910F91FF90EF90DF90089527
:047F2000F894FFCF03
:0400000300007C007D
:00000001FF
